{
  "_format": "hh-sol-artifact-1",
  "contractName": "CryrdleManual",
  "sourceName": "contracts/CryrdleManual.sol",
  "abi": [
    {
      "inputs": [
        {
          "internalType": "uint256",
          "name": "firstCoinOfTheDay",
          "type": "uint256"
        }
      ],
      "stateMutability": "nonpayable",
      "type": "constructor"
    },
    {
      "inputs": [],
      "name": "alreadyJoined",
      "type": "error"
    },
    {
      "inputs": [],
      "name": "cryrdleNotOpen",
      "type": "error"
    },
    {
      "inputs": [],
      "name": "lowScore",
      "type": "error"
    },
    {
      "inputs": [],
      "name": "noScore",
      "type": "error"
    },
    {
      "inputs": [],
      "name": "notEqualFee",
      "type": "error"
    },
    {
      "inputs": [],
      "name": "notPaidFee",
      "type": "error"
    },
    {
      "anonymous": false,
      "inputs": [
        {
          "indexed": true,
          "internalType": "uint256",
          "name": "coinOfTheDay",
          "type": "uint256"
        }
      ],
      "name": "CoinOfTheDayUpdated",
      "type": "event"
    },
    {
      "anonymous": false,
      "inputs": [
        {
          "indexed": true,
          "internalType": "address",
          "name": "participant",
          "type": "address"
        }
      ],
      "name": "CryrdleJoined",
      "type": "event"
    },
    {
      "anonymous": false,
      "inputs": [],
      "name": "NewCryrdleGameStarted",
      "type": "event"
    },
    {
      "anonymous": false,
      "inputs": [
        {
          "indexed": true,
          "internalType": "address",
          "name": "previousOwner",
          "type": "address"
        },
        {
          "indexed": true,
          "internalType": "address",
          "name": "newOwner",
          "type": "address"
        }
      ],
      "name": "OwnershipTransferred",
      "type": "event"
    },
    {
      "inputs": [],
      "name": "currentGameNum",
      "outputs": [
        {
          "internalType": "uint256",
          "name": "",
          "type": "uint256"
        }
      ],
      "stateMutability": "view",
      "type": "function"
    },
    {
      "inputs": [],
      "name": "gameAcc",
      "outputs": [
        {
          "internalType": "address",
          "name": "",
          "type": "address"
        }
      ],
      "stateMutability": "view",
      "type": "function"
    },
    {
      "inputs": [],
      "name": "gameBal",
      "outputs": [
        {
          "internalType": "uint256",
          "name": "",
          "type": "uint256"
        }
      ],
      "stateMutability": "view",
      "type": "function"
    },
    {
      "inputs": [],
      "name": "getCoinOfTheDay",
      "outputs": [
        {
          "internalType": "uint256",
          "name": "",
          "type": "uint256"
        }
      ],
      "stateMutability": "view",
      "type": "function"
    },
    {
      "inputs": [],
      "name": "getCryrdleState",
      "outputs": [
        {
          "internalType": "enum CryrdleManual.CryrdleState",
          "name": "",
          "type": "uint8"
        }
      ],
      "stateMutability": "view",
      "type": "function"
    },
    {
      "inputs": [],
      "name": "getHighScore",
      "outputs": [
        {
          "internalType": "uint256",
          "name": "",
          "type": "uint256"
        }
      ],
      "stateMutability": "view",
      "type": "function"
    },
    {
      "inputs": [],
      "name": "getNumberOfParticipants",
      "outputs": [
        {
          "internalType": "uint256",
          "name": "",
          "type": "uint256"
        }
      ],
      "stateMutability": "view",
      "type": "function"
    },
    {
      "inputs": [],
      "name": "getNumberOfWinners",
      "outputs": [
        {
          "internalType": "uint256",
          "name": "",
          "type": "uint256"
        }
      ],
      "stateMutability": "view",
      "type": "function"
    },
    {
      "inputs": [],
      "name": "getParticipants",
      "outputs": [
        {
          "internalType": "address[]",
          "name": "",
          "type": "address[]"
        }
      ],
      "stateMutability": "view",
      "type": "function"
    },
    {
      "inputs": [],
      "name": "getParticipationFee",
      "outputs": [
        {
          "internalType": "uint256",
          "name": "",
          "type": "uint256"
        }
      ],
      "stateMutability": "view",
      "type": "function"
    },
    {
      "inputs": [
        {
          "internalType": "address",
          "name": "playerAddress",
          "type": "address"
        }
      ],
      "name": "getPlayerDayPointBalance",
      "outputs": [
        {
          "internalType": "uint256",
          "name": "",
          "type": "uint256"
        }
      ],
      "stateMutability": "view",
      "type": "function"
    },
    {
      "inputs": [
        {
          "internalType": "address",
          "name": "playerAddress",
          "type": "address"
        }
      ],
      "name": "getPlayerTotalPointBalance",
      "outputs": [
        {
          "internalType": "uint256",
          "name": "",
          "type": "uint256"
        }
      ],
      "stateMutability": "view",
      "type": "function"
    },
    {
      "inputs": [],
      "name": "getRewardPerWinner",
      "outputs": [
        {
          "internalType": "uint256",
          "name": "",
          "type": "uint256"
        }
      ],
      "stateMutability": "view",
      "type": "function"
    },
    {
      "inputs": [],
      "name": "getWinnerBinary",
      "outputs": [
        {
          "internalType": "bool",
          "name": "",
          "type": "bool"
        }
      ],
      "stateMutability": "view",
      "type": "function"
    },
    {
      "inputs": [],
      "name": "getWinners",
      "outputs": [
        {
          "internalType": "address[]",
          "name": "",
          "type": "address[]"
        }
      ],
      "stateMutability": "view",
      "type": "function"
    },
    {
      "inputs": [],
      "name": "highscore",
      "outputs": [
        {
          "internalType": "uint256",
          "name": "",
          "type": "uint256"
        }
      ],
      "stateMutability": "view",
      "type": "function"
    },
    {
      "inputs": [],
      "name": "joinCryrdle",
      "outputs": [],
      "stateMutability": "payable",
      "type": "function"
    },
    {
      "inputs": [],
      "name": "owner",
      "outputs": [
        {
          "internalType": "address",
          "name": "",
          "type": "address"
        }
      ],
      "stateMutability": "view",
      "type": "function"
    },
    {
      "inputs": [],
      "name": "renounceOwnership",
      "outputs": [],
      "stateMutability": "nonpayable",
      "type": "function"
    },
    {
      "inputs": [],
      "name": "rewardPerWinner",
      "outputs": [
        {
          "internalType": "uint256",
          "name": "",
          "type": "uint256"
        }
      ],
      "stateMutability": "view",
      "type": "function"
    },
    {
      "inputs": [
        {
          "internalType": "uint256",
          "name": "_coinOfTheDay",
          "type": "uint256"
        }
      ],
      "name": "setCoinOfTheDay",
      "outputs": [],
      "stateMutability": "nonpayable",
      "type": "function"
    },
    {
      "inputs": [
        {
          "internalType": "address",
          "name": "_participant",
          "type": "address"
        },
        {
          "internalType": "uint256",
          "name": "points",
          "type": "uint256"
        }
      ],
      "name": "submitWin",
      "outputs": [],
      "stateMutability": "nonpayable",
      "type": "function"
    },
    {
      "inputs": [
        {
          "internalType": "address",
          "name": "newOwner",
          "type": "address"
        }
      ],
      "name": "transferOwnership",
      "outputs": [],
      "stateMutability": "nonpayable",
      "type": "function"
    },
    {
      "inputs": [],
      "name": "withdrawBalance",
      "outputs": [],
      "stateMutability": "nonpayable",
      "type": "function"
    }
  ],
  "bytecode": "0x60a06040523480156200001157600080fd5b506040516200194c3803806200194c8339818101604052810190620000379190620001f7565b620000576200004b620000eb60201b60201c565b620000f360201b60201c565b33600160006101000a81548173ffffffffffffffffffffffffffffffffffffffff021916908373ffffffffffffffffffffffffffffffffffffffff160217905550600060028190555080600a8190555066038d7ea4c68000608081815250506000600860006101000a81548160ff02191690836001811115620000df57620000de62000229565b5b02179055505062000258565b600033905090565b60008060009054906101000a900473ffffffffffffffffffffffffffffffffffffffff169050816000806101000a81548173ffffffffffffffffffffffffffffffffffffffff021916908373ffffffffffffffffffffffffffffffffffffffff1602179055508173ffffffffffffffffffffffffffffffffffffffff168173ffffffffffffffffffffffffffffffffffffffff167f8be0079c531659141344cd1fd0a4f28419497f9722a3daafe3b4186f6b6457e060405160405180910390a35050565b600080fd5b6000819050919050565b620001d181620001bc565b8114620001dd57600080fd5b50565b600081519050620001f181620001c6565b92915050565b60006020828403121562000210576200020f620001b7565b5b60006200022084828501620001e0565b91505092915050565b7f4e487b7100000000000000000000000000000000000000000000000000000000600052602160045260246000fd5b6080516116d16200027b60003960008181610ad50152610ba401526116d16000f3fe60806040526004361061014b5760003560e01c8063715018a6116100b65780639abed90d1161006f5780639abed90d1461041b578063c80c28a214610446578063db70525414610471578063df15c37e1461049c578063e40e93d5146104c7578063f2fde38b146105045761014b565b8063715018a61461034e578063863fc11e146103655780638d8981b4146103905780638da5cb5b146103bb5780638e33cffc146103e6578063959824d7146104115761014b565b8063597638f811610108578063597638f8146102625780635a0e38661461028b5780635aa0f9eb146102b65780635aa68ac0146102e15780635fd8c7101461030c57806364c8ec0c146103235761014b565b80631157cfd71461015057806319682ae9146101795780633824ea31146101a4578063401f6da8146101cf5780635142839f146101fa578063576e813c14610237575b600080fd5b34801561015c57600080fd5b5061017760048036038101906101729190611204565b61052d565b005b34801561018557600080fd5b5061018e61088f565b60405161019b91906112bb565b60405180910390f35b3480156101b057600080fd5b506101b96108a6565b6040516101c691906112e5565b60405180910390f35b3480156101db57600080fd5b506101e46108b0565b6040516101f1919061131b565b60405180910390f35b34801561020657600080fd5b50610221600480360381019061021c9190611336565b6108b5565b60405161022e91906112e5565b60405180910390f35b34801561024357600080fd5b5061024c6108fe565b60405161025991906112e5565b60405180910390f35b34801561026e57600080fd5b5061028960048036038101906102849190611363565b610904565b005b34801561029757600080fd5b506102a0610986565b6040516102ad91906112e5565b60405180910390f35b3480156102c257600080fd5b506102cb610998565b6040516102d891906112e5565b60405180910390f35b3480156102ed57600080fd5b506102f661099e565b604051610303919061144e565b60405180910390f35b34801561031857600080fd5b50610321610a2c565b005b34801561032f57600080fd5b50610338610ab3565b60405161034591906112e5565b60405180910390f35b34801561035a57600080fd5b50610363610abd565b005b34801561037157600080fd5b5061037a610ad1565b60405161038791906112e5565b60405180910390f35b34801561039c57600080fd5b506103a5610af9565b6040516103b291906112e5565b60405180910390f35b3480156103c757600080fd5b506103d0610aff565b6040516103dd919061147f565b60405180910390f35b3480156103f257600080fd5b506103fb610b28565b60405161040891906112e5565b60405180910390f35b610419610b35565b005b34801561042757600080fd5b50610430610dab565b60405161043d91906112e5565b60405180910390f35b34801561045257600080fd5b5061045b610db1565b60405161046891906112e5565b60405180910390f35b34801561047d57600080fd5b50610486610dbe565b604051610493919061147f565b60405180910390f35b3480156104a857600080fd5b506104b1610de4565b6040516104be919061144e565b60405180910390f35b3480156104d357600080fd5b506104ee60048036038101906104e99190611336565b610eae565b6040516104fb91906112e5565b60405180910390f35b34801561051057600080fd5b5061052b60048036038101906105269190611336565b610ef7565b005b60011515600d60008473ffffffffffffffffffffffffffffffffffffffff1673ffffffffffffffffffffffffffffffffffffffff16815260200190815260200160002060009054906101000a900460ff161515146105b7576040517f9fa61b6b00000000000000000000000000000000000000000000000000000000815260040160405180910390fd5b80600c60008473ffffffffffffffffffffffffffffffffffffffff1673ffffffffffffffffffffffffffffffffffffffff168152602001908152602001600020600082825461060691906114c9565b9250508190555080600b60008473ffffffffffffffffffffffffffffffffffffffff1673ffffffffffffffffffffffffffffffffffffffff168152602001908152602001600020600082825461065c91906114c9565b92505081905550600554600c60008473ffffffffffffffffffffffffffffffffffffffff1673ffffffffffffffffffffffffffffffffffffffff1681526020019081526020016000205410156106de576040517f36a5e99400000000000000000000000000000000000000000000000000000000815260040160405180910390fd5b600554600c60008473ffffffffffffffffffffffffffffffffffffffff1673ffffffffffffffffffffffffffffffffffffffff16815260200190815260200160002054036107a7576006829080600181540180825580915050600190039060005260206000200160009091909190916101000a81548173ffffffffffffffffffffffffffffffffffffffff021916908373ffffffffffffffffffffffffffffffffffffffff16021790555060068054905060025461079c919061152c565b60048190555061088b565b80600581905550600067ffffffffffffffff8111156107c9576107c861155d565b5b6040519080825280602002602001820160405280156107f75781602001602082028036833780820191505090505b506006908051906020019061080d9291906110c4565b506006829080600181540180825580915050600190039060005260206000200160009091909190916101000a81548173ffffffffffffffffffffffffffffffffffffffff021916908373ffffffffffffffffffffffffffffffffffffffff160217905550600680549050600254610884919061152c565b6004819055505b5050565b6000600860009054906101000a900460ff16905090565b6000600554905090565b600090565b6000600b60008373ffffffffffffffffffffffffffffffffffffffff1673ffffffffffffffffffffffffffffffffffffffff168152602001908152602001600020549050919050565b60095481565b61090c610f7a565b80600a81905550600781908060018154018082558091505060019003906000526020600020016000909190919091505560016009600082825461094f91906114c9565b92505081905550807f75c61172a72ac1ebefdf79e15dcf7ff41e653b7f28cdb30b99527c8e2c80504560405160405180910390a250565b6000610990610f7a565b600a54905090565b60025481565b60606003805480602002602001604051908101604052809291908181526020018280548015610a2257602002820191906000526020600020905b8160009054906101000a900473ffffffffffffffffffffffffffffffffffffffff1673ffffffffffffffffffffffffffffffffffffffff16815260200190600101908083116109d8575b5050505050905090565b610a34610f7a565b3373ffffffffffffffffffffffffffffffffffffffff166108fc6002549081150290604051600060405180830381858888f19350505050158015610a7c573d6000803e3d6000fd5b5060006002819055507f61228ece90d8f911c4a6bdeb8700580f162058211971c672acb3096751d3722e60405160405180910390a1565b6000600454905090565b610ac5610f7a565b610acf6000610ff8565b565b60007f0000000000000000000000000000000000000000000000000000000000000000905090565b60055481565b60008060009054906101000a900473ffffffffffffffffffffffffffffffffffffffff16905090565b6000600680549050905090565b60006001811115610b4957610b48611244565b5b600860009054906101000a900460ff166001811115610b6b57610b6a611244565b5b14610ba2576040517feb4ed6a900000000000000000000000000000000000000000000000000000000815260040160405180910390fd5b7f00000000000000000000000000000000000000000000000000000000000000003414610bfb576040517f9b0d899a00000000000000000000000000000000000000000000000000000000815260040160405180910390fd5b600e6000600954815260200190815260200160002060003373ffffffffffffffffffffffffffffffffffffffff1673ffffffffffffffffffffffffffffffffffffffff16815260200190815260200160002060009054906101000a900460ff1615610c92576040517fcf5b0d3100000000000000000000000000000000000000000000000000000000815260040160405180910390fd5b6003339080600181540180825580915050600190039060005260206000200160009091909190916101000a81548173ffffffffffffffffffffffffffffffffffffffff021916908373ffffffffffffffffffffffffffffffffffffffff1602179055503460026000828254610d0791906114c9565b925050819055506001600d60003373ffffffffffffffffffffffffffffffffffffffff1673ffffffffffffffffffffffffffffffffffffffff16815260200190815260200160002060006101000a81548160ff0219169083151502179055503373ffffffffffffffffffffffffffffffffffffffff167f970f4396869f233c8ed5d8298cd4c285ad5bb9ee51f3143b146bccad8943903d60405160405180910390a2565b60045481565b6000600380549050905090565b600160009054906101000a900473ffffffffffffffffffffffffffffffffffffffff1681565b6060600060045403610e22576040517f6d2c5a5400000000000000000000000000000000000000000000000000000000815260040160405180910390fd5b6006805480602002602001604051908101604052809291908181526020018280548015610ea457602002820191906000526020600020905b8160009054906101000a900473ffffffffffffffffffffffffffffffffffffffff1673ffffffffffffffffffffffffffffffffffffffff1681526020019060010190808311610e5a575b5050505050905090565b6000600c60008373ffffffffffffffffffffffffffffffffffffffff1673ffffffffffffffffffffffffffffffffffffffff168152602001908152602001600020549050919050565b610eff610f7a565b600073ffffffffffffffffffffffffffffffffffffffff168173ffffffffffffffffffffffffffffffffffffffff1603610f6e576040517f08c379a0000000000000000000000000000000000000000000000000000000008152600401610f659061160f565b60405180910390fd5b610f7781610ff8565b50565b610f826110bc565b73ffffffffffffffffffffffffffffffffffffffff16610fa0610aff565b73ffffffffffffffffffffffffffffffffffffffff1614610ff6576040517f08c379a0000000000000000000000000000000000000000000000000000000008152600401610fed9061167b565b60405180910390fd5b565b60008060009054906101000a900473ffffffffffffffffffffffffffffffffffffffff169050816000806101000a81548173ffffffffffffffffffffffffffffffffffffffff021916908373ffffffffffffffffffffffffffffffffffffffff1602179055508173ffffffffffffffffffffffffffffffffffffffff168173ffffffffffffffffffffffffffffffffffffffff167f8be0079c531659141344cd1fd0a4f28419497f9722a3daafe3b4186f6b6457e060405160405180910390a35050565b600033905090565b82805482825590600052602060002090810192821561113d579160200282015b8281111561113c5782518260006101000a81548173ffffffffffffffffffffffffffffffffffffffff021916908373ffffffffffffffffffffffffffffffffffffffff160217905550916020019190600101906110e4565b5b50905061114a919061114e565b5090565b5b8082111561116757600081600090555060010161114f565b5090565b600080fd5b600073ffffffffffffffffffffffffffffffffffffffff82169050919050565b600061119b82611170565b9050919050565b6111ab81611190565b81146111b657600080fd5b50565b6000813590506111c8816111a2565b92915050565b6000819050919050565b6111e1816111ce565b81146111ec57600080fd5b50565b6000813590506111fe816111d8565b92915050565b6000806040838503121561121b5761121a61116b565b5b6000611229858286016111b9565b925050602061123a858286016111ef565b9150509250929050565b7f4e487b7100000000000000000000000000000000000000000000000000000000600052602160045260246000fd5b6002811061128457611283611244565b5b50565b600081905061129582611273565b919050565b60006112a582611287565b9050919050565b6112b58161129a565b82525050565b60006020820190506112d060008301846112ac565b92915050565b6112df816111ce565b82525050565b60006020820190506112fa60008301846112d6565b92915050565b60008115159050919050565b61131581611300565b82525050565b6000602082019050611330600083018461130c565b92915050565b60006020828403121561134c5761134b61116b565b5b600061135a848285016111b9565b91505092915050565b6000602082840312156113795761137861116b565b5b6000611387848285016111ef565b91505092915050565b600081519050919050565b600082825260208201905092915050565b6000819050602082019050919050565b6113c581611190565b82525050565b60006113d783836113bc565b60208301905092915050565b6000602082019050919050565b60006113fb82611390565b611405818561139b565b9350611410836113ac565b8060005b8381101561144157815161142888826113cb565b9750611433836113e3565b925050600181019050611414565b5085935050505092915050565b6000602082019050818103600083015261146881846113f0565b905092915050565b61147981611190565b82525050565b60006020820190506114946000830184611470565b92915050565b7f4e487b7100000000000000000000000000000000000000000000000000000000600052601160045260246000fd5b60006114d4826111ce565b91506114df836111ce565b92508282019050808211156114f7576114f661149a565b5b92915050565b7f4e487b7100000000000000000000000000000000000000000000000000000000600052601260045260246000fd5b6000611537826111ce565b9150611542836111ce565b925082611552576115516114fd565b5b828204905092915050565b7f4e487b7100000000000000000000000000000000000000000000000000000000600052604160045260246000fd5b600082825260208201905092915050565b7f4f776e61626c653a206e6577206f776e657220697320746865207a65726f206160008201527f6464726573730000000000000000000000000000000000000000000000000000602082015250565b60006115f960268361158c565b91506116048261159d565b604082019050919050565b60006020820190508181036000830152611628816115ec565b9050919050565b7f4f776e61626c653a2063616c6c6572206973206e6f7420746865206f776e6572600082015250565b600061166560208361158c565b91506116708261162f565b602082019050919050565b6000602082019050818103600083015261169481611658565b905091905056fea264697066735822122030b5ef2b3e8d024758b44471d9913df0e8a80d5674d10072e7408b3c3c6199c064736f6c63430008120033",
  "linkReferences": {},
  "deployedLinkReferences": {}
}