{
  "_format": "hh-sol-artifact-1",
  "contractName": "CryrdleManual",
  "sourceName": "contracts/CryrdleManual.sol",
  "abi": [
    {
      "inputs": [
        {
          "internalType": "uint256",
          "name": "firstCoinOfTheDay",
          "type": "uint256"
        }
      ],
      "stateMutability": "nonpayable",
      "type": "constructor"
    },
    {
      "inputs": [],
      "name": "alreadyJoined",
      "type": "error"
    },
    {
      "inputs": [],
      "name": "cryrdleNotOpen",
      "type": "error"
    },
    {
      "inputs": [],
      "name": "lowScore",
      "type": "error"
    },
    {
      "inputs": [],
      "name": "noScore",
      "type": "error"
    },
    {
      "inputs": [],
      "name": "notEqualFee",
      "type": "error"
    },
    {
      "inputs": [],
      "name": "notPaidFee",
      "type": "error"
    },
    {
      "anonymous": false,
      "inputs": [
        {
          "indexed": true,
          "internalType": "uint256",
          "name": "coinOfTheDay",
          "type": "uint256"
        }
      ],
      "name": "CoinOfTheDayUpdated",
      "type": "event"
    },
    {
      "anonymous": false,
      "inputs": [
        {
          "indexed": true,
          "internalType": "address",
          "name": "participant",
          "type": "address"
        }
      ],
      "name": "CryrdleJoined",
      "type": "event"
    },
    {
      "anonymous": false,
      "inputs": [],
      "name": "NewCryrdleGameStarted",
      "type": "event"
    },
    {
      "anonymous": false,
      "inputs": [
        {
          "indexed": true,
          "internalType": "address",
          "name": "previousOwner",
          "type": "address"
        },
        {
          "indexed": true,
          "internalType": "address",
          "name": "newOwner",
          "type": "address"
        }
      ],
      "name": "OwnershipTransferred",
      "type": "event"
    },
    {
      "inputs": [],
      "name": "currentGameNum",
      "outputs": [
        {
          "internalType": "uint256",
          "name": "",
          "type": "uint256"
        }
      ],
      "stateMutability": "view",
      "type": "function"
    },
    {
      "inputs": [],
      "name": "gameAcc",
      "outputs": [
        {
          "internalType": "address",
          "name": "",
          "type": "address"
        }
      ],
      "stateMutability": "view",
      "type": "function"
    },
    {
      "inputs": [],
      "name": "gameBal",
      "outputs": [
        {
          "internalType": "uint256",
          "name": "",
          "type": "uint256"
        }
      ],
      "stateMutability": "view",
      "type": "function"
    },
    {
      "inputs": [],
      "name": "getCoinOfTheDay",
      "outputs": [
        {
          "internalType": "uint256",
          "name": "",
          "type": "uint256"
        }
      ],
      "stateMutability": "view",
      "type": "function"
    },
    {
      "inputs": [],
      "name": "getCryrdleState",
      "outputs": [
        {
          "internalType": "enum CryrdleManual.CryrdleState",
          "name": "",
          "type": "uint8"
        }
      ],
      "stateMutability": "view",
      "type": "function"
    },
    {
      "inputs": [],
      "name": "getNumberOfParticipants",
      "outputs": [
        {
          "internalType": "uint256",
          "name": "",
          "type": "uint256"
        }
      ],
      "stateMutability": "view",
      "type": "function"
    },
    {
      "inputs": [],
      "name": "getNumberOfWinners",
      "outputs": [
        {
          "internalType": "uint256",
          "name": "",
          "type": "uint256"
        }
      ],
      "stateMutability": "view",
      "type": "function"
    },
    {
      "inputs": [],
      "name": "getParticipants",
      "outputs": [
        {
          "internalType": "address[]",
          "name": "",
          "type": "address[]"
        }
      ],
      "stateMutability": "view",
      "type": "function"
    },
    {
      "inputs": [],
      "name": "getParticipationFee",
      "outputs": [
        {
          "internalType": "uint256",
          "name": "",
          "type": "uint256"
        }
      ],
      "stateMutability": "view",
      "type": "function"
    },
    {
      "inputs": [
        {
          "internalType": "address",
          "name": "playerAddress",
          "type": "address"
        }
      ],
      "name": "getPlayerDayPointBalance",
      "outputs": [
        {
          "internalType": "uint256",
          "name": "",
          "type": "uint256"
        }
      ],
      "stateMutability": "view",
      "type": "function"
    },
    {
      "inputs": [
        {
          "internalType": "address",
          "name": "playerAddress",
          "type": "address"
        }
      ],
      "name": "getPlayerTotalPointBalance",
      "outputs": [
        {
          "internalType": "uint256",
          "name": "",
          "type": "uint256"
        }
      ],
      "stateMutability": "view",
      "type": "function"
    },
    {
      "inputs": [],
      "name": "getWinnerBinary",
      "outputs": [
        {
          "internalType": "bool",
          "name": "",
          "type": "bool"
        }
      ],
      "stateMutability": "view",
      "type": "function"
    },
    {
      "inputs": [],
      "name": "getWinners",
      "outputs": [
        {
          "internalType": "address[]",
          "name": "",
          "type": "address[]"
        }
      ],
      "stateMutability": "view",
      "type": "function"
    },
    {
      "inputs": [],
      "name": "highscore",
      "outputs": [
        {
          "internalType": "uint256",
          "name": "",
          "type": "uint256"
        }
      ],
      "stateMutability": "view",
      "type": "function"
    },
    {
      "inputs": [],
      "name": "joinCryrdle",
      "outputs": [],
      "stateMutability": "payable",
      "type": "function"
    },
    {
      "inputs": [],
      "name": "owner",
      "outputs": [
        {
          "internalType": "address",
          "name": "",
          "type": "address"
        }
      ],
      "stateMutability": "view",
      "type": "function"
    },
    {
      "inputs": [],
      "name": "renounceOwnership",
      "outputs": [],
      "stateMutability": "nonpayable",
      "type": "function"
    },
    {
      "inputs": [],
      "name": "rewardPerWinner",
      "outputs": [
        {
          "internalType": "uint256",
          "name": "",
          "type": "uint256"
        }
      ],
      "stateMutability": "view",
      "type": "function"
    },
    {
      "inputs": [
        {
          "internalType": "uint256",
          "name": "_coinOfTheDay",
          "type": "uint256"
        }
      ],
      "name": "setCoinOfTheDay",
      "outputs": [],
      "stateMutability": "nonpayable",
      "type": "function"
    },
    {
      "inputs": [
        {
          "internalType": "address",
          "name": "_participant",
          "type": "address"
        },
        {
          "internalType": "uint256",
          "name": "points",
          "type": "uint256"
        }
      ],
      "name": "submitWin",
      "outputs": [],
      "stateMutability": "nonpayable",
      "type": "function"
    },
    {
      "inputs": [
        {
          "internalType": "address",
          "name": "newOwner",
          "type": "address"
        }
      ],
      "name": "transferOwnership",
      "outputs": [],
      "stateMutability": "nonpayable",
      "type": "function"
    },
    {
      "inputs": [],
      "name": "withdrawBalance",
      "outputs": [],
      "stateMutability": "nonpayable",
      "type": "function"
    }
  ],
  "bytecode": "0x60a06040523480156200001157600080fd5b506040516200192c3803806200192c8339818101604052810190620000379190620001f7565b620000576200004b620000eb60201b60201c565b620000f360201b60201c565b33600160006101000a81548173ffffffffffffffffffffffffffffffffffffffff021916908373ffffffffffffffffffffffffffffffffffffffff160217905550600060028190555080600a8190555066038d7ea4c68000608081815250506000600860006101000a81548160ff02191690836001811115620000df57620000de62000229565b5b02179055505062000258565b600033905090565b60008060009054906101000a900473ffffffffffffffffffffffffffffffffffffffff169050816000806101000a81548173ffffffffffffffffffffffffffffffffffffffff021916908373ffffffffffffffffffffffffffffffffffffffff1602179055508173ffffffffffffffffffffffffffffffffffffffff168173ffffffffffffffffffffffffffffffffffffffff167f8be0079c531659141344cd1fd0a4f28419497f9722a3daafe3b4186f6b6457e060405160405180910390a35050565b600080fd5b6000819050919050565b620001d181620001bc565b8114620001dd57600080fd5b50565b600081519050620001f181620001c6565b92915050565b60006020828403121562000210576200020f620001b7565b5b60006200022084828501620001e0565b91505092915050565b7f4e487b7100000000000000000000000000000000000000000000000000000000600052602160045260246000fd5b6080516116b16200027b60003960008181610ab50152610b8401526116b16000f3fe6080604052600436106101355760003560e01c8063863fc11e116100ab5780639abed90d1161006f5780639abed90d146103af578063c80c28a2146103da578063db70525414610405578063df15c37e14610430578063e40e93d51461045b578063f2fde38b1461049857610135565b8063863fc11e146102f95780638d8981b4146103245780638da5cb5b1461034f5780638e33cffc1461037a578063959824d7146103a557610135565b8063597638f8116100fd578063597638f8146102215780635a0e38661461024a5780635aa0f9eb146102755780635aa68ac0146102a05780635fd8c710146102cb578063715018a6146102e257610135565b80631157cfd71461013a57806319682ae914610163578063401f6da81461018e5780635142839f146101b9578063576e813c146101f6575b600080fd5b34801561014657600080fd5b50610161600480360381019061015c91906111e4565b6104c1565b005b34801561016f57600080fd5b50610178610823565b604051610185919061129b565b60405180910390f35b34801561019a57600080fd5b506101a361083a565b6040516101b091906112d1565b60405180910390f35b3480156101c557600080fd5b506101e060048036038101906101db91906112ec565b61083f565b6040516101ed9190611328565b60405180910390f35b34801561020257600080fd5b5061020b610888565b6040516102189190611328565b60405180910390f35b34801561022d57600080fd5b5061024860048036038101906102439190611343565b61088e565b005b34801561025657600080fd5b5061025f610970565b60405161026c9190611328565b60405180910390f35b34801561028157600080fd5b5061028a610982565b6040516102979190611328565b60405180910390f35b3480156102ac57600080fd5b506102b5610988565b6040516102c2919061142e565b60405180910390f35b3480156102d757600080fd5b506102e0610a16565b005b3480156102ee57600080fd5b506102f7610a9d565b005b34801561030557600080fd5b5061030e610ab1565b60405161031b9190611328565b60405180910390f35b34801561033057600080fd5b50610339610ad9565b6040516103469190611328565b60405180910390f35b34801561035b57600080fd5b50610364610adf565b604051610371919061145f565b60405180910390f35b34801561038657600080fd5b5061038f610b08565b60405161039c9190611328565b60405180910390f35b6103ad610b15565b005b3480156103bb57600080fd5b506103c4610d8b565b6040516103d19190611328565b60405180910390f35b3480156103e657600080fd5b506103ef610d91565b6040516103fc9190611328565b60405180910390f35b34801561041157600080fd5b5061041a610d9e565b604051610427919061145f565b60405180910390f35b34801561043c57600080fd5b50610445610dc4565b604051610452919061142e565b60405180910390f35b34801561046757600080fd5b50610482600480360381019061047d91906112ec565b610e8e565b60405161048f9190611328565b60405180910390f35b3480156104a457600080fd5b506104bf60048036038101906104ba91906112ec565b610ed7565b005b60011515600d60008473ffffffffffffffffffffffffffffffffffffffff1673ffffffffffffffffffffffffffffffffffffffff16815260200190815260200160002060009054906101000a900460ff1615151461054b576040517f9fa61b6b00000000000000000000000000000000000000000000000000000000815260040160405180910390fd5b80600c60008473ffffffffffffffffffffffffffffffffffffffff1673ffffffffffffffffffffffffffffffffffffffff168152602001908152602001600020600082825461059a91906114a9565b9250508190555080600b60008473ffffffffffffffffffffffffffffffffffffffff1673ffffffffffffffffffffffffffffffffffffffff16815260200190815260200160002060008282546105f091906114a9565b92505081905550600554600c60008473ffffffffffffffffffffffffffffffffffffffff1673ffffffffffffffffffffffffffffffffffffffff168152602001908152602001600020541015610672576040517f36a5e99400000000000000000000000000000000000000000000000000000000815260040160405180910390fd5b600554600c60008473ffffffffffffffffffffffffffffffffffffffff1673ffffffffffffffffffffffffffffffffffffffff168152602001908152602001600020540361073b576006829080600181540180825580915050600190039060005260206000200160009091909190916101000a81548173ffffffffffffffffffffffffffffffffffffffff021916908373ffffffffffffffffffffffffffffffffffffffff160217905550600680549050600254610730919061150c565b60048190555061081f565b80600581905550600067ffffffffffffffff81111561075d5761075c61153d565b5b60405190808252806020026020018201604052801561078b5781602001602082028036833780820191505090505b50600690805190602001906107a19291906110a4565b506006829080600181540180825580915050600190039060005260206000200160009091909190916101000a81548173ffffffffffffffffffffffffffffffffffffffff021916908373ffffffffffffffffffffffffffffffffffffffff160217905550600680549050600254610818919061150c565b6004819055505b5050565b6000600860009054906101000a900460ff16905090565b600090565b6000600b60008373ffffffffffffffffffffffffffffffffffffffff1673ffffffffffffffffffffffffffffffffffffffff168152602001908152602001600020549050919050565b60095481565b610896610f5a565b80600a8190555060078190806001815401808255809150506001900390600052602060002001600090919091909150556001600960008282546108d991906114a9565b92505081905550600067ffffffffffffffff8111156108fb576108fa61153d565b5b6040519080825280602002602001820160405280156109295781602001602082028036833780820191505090505b506003908051906020019061093f9291906110a4565b50807f75c61172a72ac1ebefdf79e15dcf7ff41e653b7f28cdb30b99527c8e2c80504560405160405180910390a250565b600061097a610f5a565b600a54905090565b60025481565b60606003805480602002602001604051908101604052809291908181526020018280548015610a0c57602002820191906000526020600020905b8160009054906101000a900473ffffffffffffffffffffffffffffffffffffffff1673ffffffffffffffffffffffffffffffffffffffff16815260200190600101908083116109c2575b5050505050905090565b610a1e610f5a565b3373ffffffffffffffffffffffffffffffffffffffff166108fc6002549081150290604051600060405180830381858888f19350505050158015610a66573d6000803e3d6000fd5b5060006002819055507f61228ece90d8f911c4a6bdeb8700580f162058211971c672acb3096751d3722e60405160405180910390a1565b610aa5610f5a565b610aaf6000610fd8565b565b60007f0000000000000000000000000000000000000000000000000000000000000000905090565b60055481565b60008060009054906101000a900473ffffffffffffffffffffffffffffffffffffffff16905090565b6000600680549050905090565b60006001811115610b2957610b28611224565b5b600860009054906101000a900460ff166001811115610b4b57610b4a611224565b5b14610b82576040517feb4ed6a900000000000000000000000000000000000000000000000000000000815260040160405180910390fd5b7f00000000000000000000000000000000000000000000000000000000000000003414610bdb576040517f9b0d899a00000000000000000000000000000000000000000000000000000000815260040160405180910390fd5b600e6000600954815260200190815260200160002060003373ffffffffffffffffffffffffffffffffffffffff1673ffffffffffffffffffffffffffffffffffffffff16815260200190815260200160002060009054906101000a900460ff1615610c72576040517fcf5b0d3100000000000000000000000000000000000000000000000000000000815260040160405180910390fd5b6003339080600181540180825580915050600190039060005260206000200160009091909190916101000a81548173ffffffffffffffffffffffffffffffffffffffff021916908373ffffffffffffffffffffffffffffffffffffffff1602179055503460026000828254610ce791906114a9565b925050819055506001600d60003373ffffffffffffffffffffffffffffffffffffffff1673ffffffffffffffffffffffffffffffffffffffff16815260200190815260200160002060006101000a81548160ff0219169083151502179055503373ffffffffffffffffffffffffffffffffffffffff167f970f4396869f233c8ed5d8298cd4c285ad5bb9ee51f3143b146bccad8943903d60405160405180910390a2565b60045481565b6000600380549050905090565b600160009054906101000a900473ffffffffffffffffffffffffffffffffffffffff1681565b6060600060045403610e02576040517f6d2c5a5400000000000000000000000000000000000000000000000000000000815260040160405180910390fd5b6006805480602002602001604051908101604052809291908181526020018280548015610e8457602002820191906000526020600020905b8160009054906101000a900473ffffffffffffffffffffffffffffffffffffffff1673ffffffffffffffffffffffffffffffffffffffff1681526020019060010190808311610e3a575b5050505050905090565b6000600c60008373ffffffffffffffffffffffffffffffffffffffff1673ffffffffffffffffffffffffffffffffffffffff168152602001908152602001600020549050919050565b610edf610f5a565b600073ffffffffffffffffffffffffffffffffffffffff168173ffffffffffffffffffffffffffffffffffffffff1603610f4e576040517f08c379a0000000000000000000000000000000000000000000000000000000008152600401610f45906115ef565b60405180910390fd5b610f5781610fd8565b50565b610f6261109c565b73ffffffffffffffffffffffffffffffffffffffff16610f80610adf565b73ffffffffffffffffffffffffffffffffffffffff1614610fd6576040517f08c379a0000000000000000000000000000000000000000000000000000000008152600401610fcd9061165b565b60405180910390fd5b565b60008060009054906101000a900473ffffffffffffffffffffffffffffffffffffffff169050816000806101000a81548173ffffffffffffffffffffffffffffffffffffffff021916908373ffffffffffffffffffffffffffffffffffffffff1602179055508173ffffffffffffffffffffffffffffffffffffffff168173ffffffffffffffffffffffffffffffffffffffff167f8be0079c531659141344cd1fd0a4f28419497f9722a3daafe3b4186f6b6457e060405160405180910390a35050565b600033905090565b82805482825590600052602060002090810192821561111d579160200282015b8281111561111c5782518260006101000a81548173ffffffffffffffffffffffffffffffffffffffff021916908373ffffffffffffffffffffffffffffffffffffffff160217905550916020019190600101906110c4565b5b50905061112a919061112e565b5090565b5b8082111561114757600081600090555060010161112f565b5090565b600080fd5b600073ffffffffffffffffffffffffffffffffffffffff82169050919050565b600061117b82611150565b9050919050565b61118b81611170565b811461119657600080fd5b50565b6000813590506111a881611182565b92915050565b6000819050919050565b6111c1816111ae565b81146111cc57600080fd5b50565b6000813590506111de816111b8565b92915050565b600080604083850312156111fb576111fa61114b565b5b600061120985828601611199565b925050602061121a858286016111cf565b9150509250929050565b7f4e487b7100000000000000000000000000000000000000000000000000000000600052602160045260246000fd5b6002811061126457611263611224565b5b50565b600081905061127582611253565b919050565b600061128582611267565b9050919050565b6112958161127a565b82525050565b60006020820190506112b0600083018461128c565b92915050565b60008115159050919050565b6112cb816112b6565b82525050565b60006020820190506112e660008301846112c2565b92915050565b6000602082840312156113025761130161114b565b5b600061131084828501611199565b91505092915050565b611322816111ae565b82525050565b600060208201905061133d6000830184611319565b92915050565b6000602082840312156113595761135861114b565b5b6000611367848285016111cf565b91505092915050565b600081519050919050565b600082825260208201905092915050565b6000819050602082019050919050565b6113a581611170565b82525050565b60006113b7838361139c565b60208301905092915050565b6000602082019050919050565b60006113db82611370565b6113e5818561137b565b93506113f08361138c565b8060005b8381101561142157815161140888826113ab565b9750611413836113c3565b9250506001810190506113f4565b5085935050505092915050565b6000602082019050818103600083015261144881846113d0565b905092915050565b61145981611170565b82525050565b60006020820190506114746000830184611450565b92915050565b7f4e487b7100000000000000000000000000000000000000000000000000000000600052601160045260246000fd5b60006114b4826111ae565b91506114bf836111ae565b92508282019050808211156114d7576114d661147a565b5b92915050565b7f4e487b7100000000000000000000000000000000000000000000000000000000600052601260045260246000fd5b6000611517826111ae565b9150611522836111ae565b925082611532576115316114dd565b5b828204905092915050565b7f4e487b7100000000000000000000000000000000000000000000000000000000600052604160045260246000fd5b600082825260208201905092915050565b7f4f776e61626c653a206e6577206f776e657220697320746865207a65726f206160008201527f6464726573730000000000000000000000000000000000000000000000000000602082015250565b60006115d960268361156c565b91506115e48261157d565b604082019050919050565b60006020820190508181036000830152611608816115cc565b9050919050565b7f4f776e61626c653a2063616c6c6572206973206e6f7420746865206f776e6572600082015250565b600061164560208361156c565b91506116508261160f565b602082019050919050565b6000602082019050818103600083015261167481611638565b905091905056fea2646970667358221220493ed6e68fa3802683ece324647a646088f46b8712c2de9515871bb11f840b7464736f6c63430008120033",
  "linkReferences": {},
  "deployedLinkReferences": {}
}